{
  "contractName": "GameOfShips",
  "abi": [
    {
      "anonymous": false,
      "inputs": [
        {
          "indexed": false,
          "internalType": "uint32",
          "name": "_gameIndex",
          "type": "uint32"
        },
        {
          "indexed": false,
          "internalType": "address",
          "name": "_bomber",
          "type": "address"
        },
        {
          "indexed": false,
          "internalType": "uint128",
          "name": "_bombsBoard",
          "type": "uint128"
        },
        {
          "indexed": false,
          "internalType": "uint256",
          "name": "_paidBombsCost",
          "type": "uint256"
        }
      ],
      "name": "BombsPlaced",
      "type": "event"
    },
    {
      "anonymous": false,
      "inputs": [
        {
          "indexed": false,
          "internalType": "uint32",
          "name": "_gameIndex",
          "type": "uint32"
        },
        {
          "indexed": false,
          "internalType": "address",
          "name": "_creator",
          "type": "address"
        },
        {
          "indexed": false,
          "internalType": "bytes32",
          "name": "_creationHash",
          "type": "bytes32"
        },
        {
          "indexed": false,
          "internalType": "uint256",
          "name": "_prize",
          "type": "uint256"
        },
        {
          "indexed": false,
          "internalType": "uint256",
          "name": "_bombCost",
          "type": "uint256"
        },
        {
          "indexed": false,
          "internalType": "uint16",
          "name": "_revealTimeoutBlocks",
          "type": "uint16"
        },
        {
          "indexed": false,
          "internalType": "uint16",
          "name": "_joinTimeoutBlocks",
          "type": "uint16"
        }
      ],
      "name": "GameCreated",
      "type": "event"
    },
    {
      "anonymous": false,
      "inputs": [
        {
          "indexed": false,
          "internalType": "uint32",
          "name": "_gameIndex",
          "type": "uint32"
        },
        {
          "indexed": false,
          "internalType": "bool",
          "name": "_isCreatorClaimer",
          "type": "bool"
        }
      ],
      "name": "GameFinished",
      "type": "event"
    },
    {
      "anonymous": false,
      "inputs": [
        {
          "indexed": false,
          "internalType": "uint32",
          "name": "_gameIndex",
          "type": "uint32"
        }
      ],
      "name": "JoinTimeout",
      "type": "event"
    },
    {
      "anonymous": false,
      "inputs": [
        {
          "indexed": false,
          "internalType": "uint32",
          "name": "_gameIndex",
          "type": "uint32"
        }
      ],
      "name": "RevealTimeout",
      "type": "event"
    },
    {
      "anonymous": false,
      "inputs": [
        {
          "indexed": false,
          "internalType": "uint32",
          "name": "_gameIndex",
          "type": "uint32"
        },
        {
          "components": [
            {
              "internalType": "uint8",
              "name": "beginX",
              "type": "uint8"
            },
            {
              "internalType": "uint8",
              "name": "beginY",
              "type": "uint8"
            },
            {
              "internalType": "bool",
              "name": "vertical",
              "type": "bool"
            }
          ],
          "indexed": false,
          "internalType": "struct GameOfShips.Ship[5]",
          "name": "_ships",
          "type": "tuple[5]"
        }
      ],
      "name": "ShipsRevealed",
      "type": "event"
    },
    {
      "constant": true,
      "inputs": [
        {
          "internalType": "uint32",
          "name": "",
          "type": "uint32"
        }
      ],
      "name": "games",
      "outputs": [
        {
          "internalType": "address payable",
          "name": "creator",
          "type": "address"
        },
        {
          "internalType": "bytes32",
          "name": "creationHash",
          "type": "bytes32"
        },
        {
          "internalType": "uint256",
          "name": "prize",
          "type": "uint256"
        },
        {
          "internalType": "uint256",
          "name": "bombCost",
          "type": "uint256"
        },
        {
          "internalType": "uint16",
          "name": "revealTimeoutBlocks",
          "type": "uint16"
        },
        {
          "internalType": "uint256",
          "name": "joinTimeoutBlockNumber",
          "type": "uint256"
        },
        {
          "internalType": "uint256",
          "name": "revealTimeoutBlockNumber",
          "type": "uint256"
        },
        {
          "internalType": "address payable",
          "name": "bomber",
          "type": "address"
        },
        {
          "internalType": "uint256",
          "name": "paidBombsCost",
          "type": "uint256"
        },
        {
          "internalType": "uint128",
          "name": "bombsBoard",
          "type": "uint128"
        }
      ],
      "payable": false,
      "stateMutability": "view",
      "type": "function"
    },
    {
      "constant": false,
      "inputs": [
        {
          "internalType": "bytes32",
          "name": "_creationHash",
          "type": "bytes32"
        },
        {
          "internalType": "uint256",
          "name": "_bombCost",
          "type": "uint256"
        },
        {
          "internalType": "uint16",
          "name": "_revealTimeoutBlocks",
          "type": "uint16"
        },
        {
          "internalType": "uint16",
          "name": "_joinTimeoutBlocks",
          "type": "uint16"
        }
      ],
      "name": "createGame",
      "outputs": [],
      "payable": true,
      "stateMutability": "payable",
      "type": "function"
    },
    {
      "constant": false,
      "inputs": [
        {
          "internalType": "uint32",
          "name": "_gameIndex",
          "type": "uint32"
        },
        {
          "internalType": "uint128",
          "name": "_bombsBoard",
          "type": "uint128"
        }
      ],
      "name": "setBombs",
      "outputs": [],
      "payable": true,
      "stateMutability": "payable",
      "type": "function"
    },
    {
      "constant": false,
      "inputs": [
        {
          "internalType": "uint32",
          "name": "_gameIndex",
          "type": "uint32"
        }
      ],
      "name": "claimJoinTimeoutReturn",
      "outputs": [],
      "payable": false,
      "stateMutability": "nonpayable",
      "type": "function"
    },
    {
      "constant": false,
      "inputs": [
        {
          "internalType": "uint32",
          "name": "_gameIndex",
          "type": "uint32"
        },
        {
          "components": [
            {
              "internalType": "uint8",
              "name": "beginX",
              "type": "uint8"
            },
            {
              "internalType": "uint8",
              "name": "beginY",
              "type": "uint8"
            },
            {
              "internalType": "bool",
              "name": "vertical",
              "type": "bool"
            }
          ],
          "internalType": "struct GameOfShips.Ship[5]",
          "name": "_ships",
          "type": "tuple[5]"
        },
        {
          "internalType": "bytes32",
          "name": "_seed",
          "type": "bytes32"
        }
      ],
      "name": "finishGame",
      "outputs": [],
      "payable": false,
      "stateMutability": "nonpayable",
      "type": "function"
    },
    {
      "constant": false,
      "inputs": [
        {
          "internalType": "uint32",
          "name": "_gameIndex",
          "type": "uint32"
        }
      ],
      "name": "claimBomberWinByTimeout",
      "outputs": [],
      "payable": false,
      "stateMutability": "nonpayable",
      "type": "function"
    }
  ],
  "bytecode": "0x60806040526000600160006101000a81548163ffffffff021916908363ffffffff16021790555034801561003257600080fd5b50612c83806100426000396000f3fe6080604052600436106100555760003560e01c806322c287ab1461005a57806340b8207f146100835780636f395c051461009f578063ae80cf8f146100c8578063b03a1274146100e4578063da5d2fac1461010d575b600080fd5b34801561006657600080fd5b50610081600480360361007c9190810190611e56565b610153565b005b61009d60048036036100989190810190611ea7565b61062e565b005b3480156100ab57600080fd5b506100c660048036036100c19190810190611e2d565b610908565b005b6100e260048036036100dd9190810190611dca565b610da8565b005b3480156100f057600080fd5b5061010b60048036036101069190810190611e2d565b611136565b005b34801561011957600080fd5b50610134600480360361012f9190810190611e2d565b611585565b60405161014a9a999897969594939291906125fc565b60405180910390f35b61015b611b64565b6000808563ffffffff1663ffffffff168152602001908152602001600020604051806101400160405290816000820160009054906101000a900473ffffffffffffffffffffffffffffffffffffffff1673ffffffffffffffffffffffffffffffffffffffff1673ffffffffffffffffffffffffffffffffffffffff1681526020016001820154815260200160028201548152602001600382015481526020016004820160009054906101000a900461ffff1661ffff1661ffff16815260200160058201548152602001600682015481526020016007820160009054906101000a900473ffffffffffffffffffffffffffffffffffffffff1673ffffffffffffffffffffffffffffffffffffffff1673ffffffffffffffffffffffffffffffffffffffff168152602001600882015481526020016009820160009054906101000a90046fffffffffffffffffffffffffffffffff166fffffffffffffffffffffffffffffffff166fffffffffffffffffffffffffffffffff16815250509050600073ffffffffffffffffffffffffffffffffffffffff16816000015173ffffffffffffffffffffffffffffffffffffffff16141561034d576040517f08c379a0000000000000000000000000000000000000000000000000000000008152600401610344906126d8565b60405180910390fd5b806020015161035c8484611643565b1461039c576040517f08c379a000000000000000000000000000000000000000000000000000000000815260040161039390612798565b60405180910390fd5b60006103a784611892565b90506000808663ffffffff1663ffffffff168152602001908152602001600020600080820160006101000a81549073ffffffffffffffffffffffffffffffffffffffff02191690556001820160009055600282016000905560038201600090556004820160006101000a81549061ffff0219169055600582016000905560068201600090556007820160006101000a81549073ffffffffffffffffffffffffffffffffffffffff021916905560088201600090556009820160006101000a8154906fffffffffffffffffffffffffffffffff021916905550506000816fffffffffffffffffffffffffffffffff1683610120015183166fffffffffffffffffffffffffffffffff161490507f2dfdd0de1636e713b34bbd87916d78150c7616add462d399f864c7621160378a86866040516104e39291906129a7565b60405180910390a17f7cd473302c66b90de6c33335c1150b2d0c653a68e63dfbba07987b1b095d699e86821560405161051d9291906129d1565b60405180910390a180156105cf578260e0015173ffffffffffffffffffffffffffffffffffffffff166108fc84604001519081150290604051600060405180830381858888f19350505050158015610579573d6000803e3d6000fd5b50826000015173ffffffffffffffffffffffffffffffffffffffff166108fc8461010001519081150290604051600060405180830381858888f193505050501580156105c9573d6000803e3d6000fd5b50610626565b826000015173ffffffffffffffffffffffffffffffffffffffff166108fc8461010001518560400151019081150290604051600060405180830381858888f19350505050158015610624573d6000803e3d6000fd5b505b505050505050565b60008060008463ffffffff1663ffffffff1681526020019081526020016000209050600073ffffffffffffffffffffffffffffffffffffffff168160000160009054906101000a900473ffffffffffffffffffffffffffffffffffffffff1673ffffffffffffffffffffffffffffffffffffffff1614156106e4576040517f08c379a00000000000000000000000000000000000000000000000000000000081526004016106db906126d8565b60405180910390fd5b600073ffffffffffffffffffffffffffffffffffffffff168160070160009054906101000a900473ffffffffffffffffffffffffffffffffffffffff1673ffffffffffffffffffffffffffffffffffffffff1614610777576040517f08c379a000000000000000000000000000000000000000000000000000000000815260040161076e906126f8565b60405180910390fd5b6000610787838360030154611ae6565b9050803410156107cc576040517f08c379a00000000000000000000000000000000000000000000000000000000081526004016107c3906127f8565b60405180910390fd5b6019826003015482816107db57fe5b04101561081d576040517f08c379a0000000000000000000000000000000000000000000000000000000008152600401610814906127d8565b60405180910390fd5b338260070160006101000a81548173ffffffffffffffffffffffffffffffffffffffff021916908373ffffffffffffffffffffffffffffffffffffffff160217905550828260090160006101000a8154816fffffffffffffffffffffffffffffffff02191690836fffffffffffffffffffffffffffffffff1602179055508160040160009054906101000a900461ffff1661ffff16430182600601819055503482600801819055507fc2c8952413d90d1b917cf0cb878ac14548f52a72eaa1359b703e35f32008db41843385346040516108fa9493929190612962565b60405180910390a150505050565b610910611b64565b6000808363ffffffff1663ffffffff168152602001908152602001600020604051806101400160405290816000820160009054906101000a900473ffffffffffffffffffffffffffffffffffffffff1673ffffffffffffffffffffffffffffffffffffffff1673ffffffffffffffffffffffffffffffffffffffff1681526020016001820154815260200160028201548152602001600382015481526020016004820160009054906101000a900461ffff1661ffff1661ffff16815260200160058201548152602001600682015481526020016007820160009054906101000a900473ffffffffffffffffffffffffffffffffffffffff1673ffffffffffffffffffffffffffffffffffffffff1673ffffffffffffffffffffffffffffffffffffffff168152602001600882015481526020016009820160009054906101000a90046fffffffffffffffffffffffffffffffff166fffffffffffffffffffffffffffffffff166fffffffffffffffffffffffffffffffff16815250509050600073ffffffffffffffffffffffffffffffffffffffff16816000015173ffffffffffffffffffffffffffffffffffffffff161415610b02576040517f08c379a0000000000000000000000000000000000000000000000000000000008152600401610af9906126d8565b60405180910390fd5b600073ffffffffffffffffffffffffffffffffffffffff168160e0015173ffffffffffffffffffffffffffffffffffffffff161415610b76576040517f08c379a0000000000000000000000000000000000000000000000000000000008152600401610b6d90612738565b60405180910390fd5b8060c00151431015610bbd576040517f08c379a0000000000000000000000000000000000000000000000000000000008152600401610bb490612858565b60405180910390fd5b6000808363ffffffff1663ffffffff168152602001908152602001600020600080820160006101000a81549073ffffffffffffffffffffffffffffffffffffffff02191690556001820160009055600282016000905560038201600090556004820160006101000a81549061ffff0219169055600582016000905560068201600090556007820160006101000a81549073ffffffffffffffffffffffffffffffffffffffff021916905560088201600090556009820160006101000a8154906fffffffffffffffffffffffffffffffff021916905550507ffd858131d7b916891e8e2ca8bc0bfa5740ca46d588b9d3c074f359b1a54e3b3e82604051610cc391906128d8565b60405180910390a17f7cd473302c66b90de6c33335c1150b2d0c653a68e63dfbba07987b1b095d699e826000604051610cfd9291906129d1565b60405180910390a18060e0015173ffffffffffffffffffffffffffffffffffffffff166108fc82604001519081150290604051600060405180830381858888f19350505050158015610d53573d6000803e3d6000fd5b50806000015173ffffffffffffffffffffffffffffffffffffffff166108fc8261010001519081150290604051600060405180830381858888f19350505050158015610da3573d6000803e3d6000fd5b505050565b600a8261ffff161015610df0576040517f08c379a0000000000000000000000000000000000000000000000000000000008152600401610de790612778565b60405180910390fd5b61a8c08261ffff161115610e39576040517f08c379a0000000000000000000000000000000000000000000000000000000008152600401610e30906128b8565b60405180910390fd5b600a8161ffff161015610e81576040517f08c379a0000000000000000000000000000000000000000000000000000000008152600401610e78906127b8565b60405180910390fd5b61a8c08161ffff161115610eca576040517f08c379a0000000000000000000000000000000000000000000000000000000008152600401610ec190612898565b60405180910390fd5b655af3107a4000341015610f13576040517f08c379a0000000000000000000000000000000000000000000000000000000008152600401610f0a90612818565b60405180910390fd5b670de0b6b3a7640000341115610f5e576040517f08c379a0000000000000000000000000000000000000000000000000000000008152600401610f5590612838565b60405180910390fd5b60643481610f6857fe5b04831015610fab576040517f08c379a0000000000000000000000000000000000000000000000000000000008152600401610fa290612878565b60405180910390fd5b601a3481610fb557fe5b04831115610ff8576040517f08c379a0000000000000000000000000000000000000000000000000000000008152600401610fef90612758565b60405180910390fd5b60008060006001600081819054906101000a900463ffffffff1660010191906101000a81548163ffffffff021916908363ffffffff160217905563ffffffff1663ffffffff1681526020019081526020016000209050338160000160006101000a81548173ffffffffffffffffffffffffffffffffffffffff021916908373ffffffffffffffffffffffffffffffffffffffff160217905550848160010181905550838160030181905550348160020181905550828160040160006101000a81548161ffff021916908361ffff1602179055508161ffff16430181600501819055507f24985762039c9bb2e45c8b4f0e475c5f16d2b2d4084d8360f39bcd2d8f28992f600160009054906101000a900463ffffffff1633873488888860405161112797969594939291906128f3565b60405180910390a15050505050565b61113e611b64565b6000808363ffffffff1663ffffffff168152602001908152602001600020604051806101400160405290816000820160009054906101000a900473ffffffffffffffffffffffffffffffffffffffff1673ffffffffffffffffffffffffffffffffffffffff1673ffffffffffffffffffffffffffffffffffffffff1681526020016001820154815260200160028201548152602001600382015481526020016004820160009054906101000a900461ffff1661ffff1661ffff16815260200160058201548152602001600682015481526020016007820160009054906101000a900473ffffffffffffffffffffffffffffffffffffffff1673ffffffffffffffffffffffffffffffffffffffff1673ffffffffffffffffffffffffffffffffffffffff168152602001600882015481526020016009820160009054906101000a90046fffffffffffffffffffffffffffffffff166fffffffffffffffffffffffffffffffff166fffffffffffffffffffffffffffffffff16815250509050600073ffffffffffffffffffffffffffffffffffffffff16816000015173ffffffffffffffffffffffffffffffffffffffff161415611330576040517f08c379a0000000000000000000000000000000000000000000000000000000008152600401611327906126d8565b60405180910390fd5b8060a00151431015611377576040517f08c379a000000000000000000000000000000000000000000000000000000000815260040161136e90612858565b60405180910390fd5b600073ffffffffffffffffffffffffffffffffffffffff168160e0015173ffffffffffffffffffffffffffffffffffffffff16146113ea576040517f08c379a00000000000000000000000000000000000000000000000000000000081526004016113e190612718565b60405180910390fd5b6000808363ffffffff1663ffffffff168152602001908152602001600020600080820160006101000a81549073ffffffffffffffffffffffffffffffffffffffff02191690556001820160009055600282016000905560038201600090556004820160006101000a81549061ffff0219169055600582016000905560068201600090556007820160006101000a81549073ffffffffffffffffffffffffffffffffffffffff021916905560088201600090556009820160006101000a8154906fffffffffffffffffffffffffffffffff021916905550507f258d7183049b93fab1c2bfa7b6b017b265bf8ae00cba8d1b5de12a658c0c7bd5826040516114f091906128d8565b60405180910390a17f7cd473302c66b90de6c33335c1150b2d0c653a68e63dfbba07987b1b095d699e82600160405161152a9291906129d1565b60405180910390a1806000015173ffffffffffffffffffffffffffffffffffffffff166108fc82604001519081150290604051600060405180830381858888f19350505050158015611580573d6000803e3d6000fd5b505050565b60006020528060005260406000206000915090508060000160009054906101000a900473ffffffffffffffffffffffffffffffffffffffff16908060010154908060020154908060030154908060040160009054906101000a900461ffff16908060050154908060060154908060070160009054906101000a900473ffffffffffffffffffffffffffffffffffffffff16908060080154908060090160009054906101000a90046fffffffffffffffffffffffffffffffff1690508a565b60006060602f6040519080825280601f01601f19166020018201604052801561167b5781602001600182028038833980820191505090505b50905060008090505b60058160ff1610156117c357848160ff166005811061169f57fe5b60200201516000015160f81b826003830260ff16815181106116bd57fe5b60200101907effffffffffffffffffffffffffffffffffffffffffffffffffffffffffffff1916908160001a905350848160ff16600581106116fb57fe5b60200201516020015160f81b826001600384020160ff168151811061171c57fe5b60200101907effffffffffffffffffffffffffffffffffffffffffffffffffffffffffffff1916908160001a905350848160ff166005811061175a57fe5b60200201516040015161176e576000611771565b60015b60f81b826002600384020160ff168151811061178957fe5b60200101907effffffffffffffffffffffffffffffffffffffffffffffffffffffffffffff1916908160001a905350806001019050611684565b5060008090505b602060ff168160ff16101561183857838160ff16602081106117e857fe5b1a60f81b8282600f0160ff16815181106117fe57fe5b60200101907effffffffffffffffffffffffffffffffffffffffffffffffffffffffffffff1916908160001a9053508060010190506117ca565b5060028160405161184991906125e5565b602060405180830381855afa158015611866573d6000803e3d6000fd5b5050506040513d601f19601f820116820180604052506118899190810190611da1565b91505092915050565b6000806000905060008090505b60058160ff161015611adc576118b3611bfc565b848260ff16600581106118c257fe5b60200201519050600115158160400151151514156119d7576006816020015160ff161115611925576040517f08c379a000000000000000000000000000000000000000000000000000000000815260040161191c90612698565b60405180910390fd5b6000600482602001510190506000826020015190505b8160ff168160ff1610156119d05760008360000151600a83020160ff169050600015156119688783611b2d565b1515146119aa576040517f08c379a00000000000000000000000000000000000000000000000000000000081526004016119a1906126b8565b60405180910390fd5b806fffffffffffffffffffffffffffffffff1660020a860195505080600101905061193b565b5050611ad0565b6006816000015160ff161115611a22576040517f08c379a0000000000000000000000000000000000000000000000000000000008152600401611a1990612698565b60405180910390fd5b6000600482600001510190506000826000015190505b8160ff168160ff161015611acd57600081600a8560200151020160ff16905060001515611a658783611b2d565b151514611aa7576040517f08c379a0000000000000000000000000000000000000000000000000000000008152600401611a9e906126b8565b60405180910390fd5b806fffffffffffffffffffffffffffffffff1660020a8601955050806001019050611a38565b50505b5080600101905061189f565b5080915050919050565b6000806000905060008090505b60648160ff161015611b2257611b0c858260ff16611b2d565b15611b175783820191505b806001019050611af3565b508091505092915050565b600080826fffffffffffffffffffffffffffffffff1660020a84166fffffffffffffffffffffffffffffffff161415905092915050565b604051806101400160405280600073ffffffffffffffffffffffffffffffffffffffff168152602001600080191681526020016000815260200160008152602001600061ffff1681526020016000815260200160008152602001600073ffffffffffffffffffffffffffffffffffffffff1681526020016000815260200160006fffffffffffffffffffffffffffffffff1681525090565b6040518060600160405280600060ff168152602001600060ff1681526020016000151581525090565b600082601f830112611c3657600080fd5b6005611c49611c4482612a27565b6129fa565b91508183856060840282011115611c5f57600080fd5b60005b83811015611c8f5781611c758882611cd8565b845260208401935060608301925050600181019050611c62565b5050505092915050565b600081359050611ca881612b9f565b92915050565b600081359050611cbd81612bb6565b92915050565b600081519050611cd281612bb6565b92915050565b600060608284031215611cea57600080fd5b611cf460606129fa565b90506000611d0484828501611d8c565b6000830152506020611d1884828501611d8c565b6020830152506040611d2c84828501611c99565b60408301525092915050565b600081359050611d4781612bcd565b92915050565b600081359050611d5c81612be4565b92915050565b600081359050611d7181612bfb565b92915050565b600081359050611d8681612c12565b92915050565b600081359050611d9b81612c29565b92915050565b600060208284031215611db357600080fd5b6000611dc184828501611cc3565b91505092915050565b60008060008060808587031215611de057600080fd5b6000611dee87828801611cae565b9450506020611dff87828801611d62565b9350506040611e1087828801611d4d565b9250506060611e2187828801611d4d565b91505092959194509250565b600060208284031215611e3f57600080fd5b6000611e4d84828501611d77565b91505092915050565b60008060006102208486031215611e6c57600080fd5b6000611e7a86828701611d77565b9350506020611e8b86828701611c25565b925050610200611e9d86828701611cae565b9150509250925092565b60008060408385031215611eba57600080fd5b6000611ec885828601611d77565b9250506020611ed985828601611d38565b9150509250929050565b6000611eef8383612558565b60608301905092915050565b611f0481612b36565b82525050565b611f1381612a9d565b82525050565b611f2281612a53565b611f2c8184612a76565b9250611f3782612a49565b8060005b83811015611f68578151611f4f8782611ee3565b9650611f5a83612a69565b925050600181019050611f3b565b505050505050565b611f7981612aaf565b82525050565b611f8881612aaf565b82525050565b611f9781612abb565b82525050565b6000611fa882612a5e565b611fb28185612a81565b9350611fc2818560208601612b6c565b80840191505092915050565b6000611fdb601783612a8c565b91507f496e76616c6964207368697020706c6163656d656e742e0000000000000000006000830152602082019050919050565b600061201b601c83612a8c565b91507f506c616365642073686970732063616e6e6f74206f7665726c617921000000006000830152602082019050919050565b600061205b600f83612a8c565b91507f47616d65206e6f7420666f756e642e00000000000000000000000000000000006000830152602082019050919050565b600061209b601783612a8c565b91507f426f6d62657220616c726561647920646566696e65642e0000000000000000006000830152602082019050919050565b60006120db601983612a8c565b91507f5468652067616d6520616c726561647920737461727465642e000000000000006000830152602082019050919050565b600061211b601683612a8c565b91507f426f6d626572206973206e6f7420646566696e65642e000000000000000000006000830152602082019050919050565b600061215b602283612a8c565b91507f426f6d6220636f7374206d757374206265203c3d20312f3236206f662070726960008301527f7a650000000000000000000000000000000000000000000000000000000000006020830152604082019050919050565b60006121c1602383612a8c565b91507f4d696e696d756d2072657665616c2074696d656f757420697320313020626c6f60008301527f636b7300000000000000000000000000000000000000000000000000000000006020830152604082019050919050565b6000612227601683612a8c565b91507f496e76616c696420686173682070726f76696465642e000000000000000000006000830152602082019050919050565b6000612267602183612a8c565b91507f4d696e696d756d206a6f696e2074696d656f757420697320313020626c6f636b60008301527f73000000000000000000000000000000000000000000000000000000000000006020830152604082019050919050565b60006122cd602483612a8c565b91507f596f75206e65656420746f20706c616365206174206c6561737420323520626f60008301527f6d62732e000000000000000000000000000000000000000000000000000000006020830152604082019050919050565b6000612333601483612a8c565b91507f4e6f7420656e6f756768207765692073656e742e0000000000000000000000006000830152602082019050919050565b6000612373601c83612a8c565b91507f4d696e696d756d207072697a6520697320302e303030303120455448000000006000830152602082019050919050565b60006123b3601683612a8c565b91507f4d6178696d756d207072697a65206973203120455448000000000000000000006000830152602082019050919050565b60006123f3601883612a8c565b91507f54696d656f7574206e6f742072656163686564207965742e00000000000000006000830152602082019050919050565b6000612433602383612a8c565b91507f426f6d6220636f7374206d757374206265203e3d20312f313030206f6620707260008301527f697a6500000000000000000000000000000000000000000000000000000000006020830152604082019050919050565b6000612499602483612a8c565b91507f4d6178696d756d206a6f696e2074696d656f757420697320343332303020626c60008301527f6f636b73000000000000000000000000000000000000000000000000000000006020830152604082019050919050565b60006124ff602683612a8c565b91507f4d6178696d756d2072657665616c2074696d656f75742069732034333230302060008301527f626c6f636b7300000000000000000000000000000000000000000000000000006020830152604082019050919050565b60608201600082015161256e60008501826125d6565b50602082015161258160208501826125d6565b5060408201516125946040850182611f70565b50505050565b6125a381612ac5565b82525050565b6125b281612ae1565b82525050565b6125c181612b0f565b82525050565b6125d081612b19565b82525050565b6125df81612b29565b82525050565b60006125f18284611f9d565b915081905092915050565b600061014082019050612612600083018d611f0a565b61261f602083018c611f8e565b61262c604083018b6125b8565b612639606083018a6125b8565b61264660808301896125a9565b61265360a08301886125b8565b61266060c08301876125b8565b61266d60e0830186611f0a565b61267b6101008301856125b8565b61268961012083018461259a565b9b9a5050505050505050505050565b600060208201905081810360008301526126b181611fce565b9050919050565b600060208201905081810360008301526126d18161200e565b9050919050565b600060208201905081810360008301526126f18161204e565b9050919050565b600060208201905081810360008301526127118161208e565b9050919050565b60006020820190508181036000830152612731816120ce565b9050919050565b600060208201905081810360008301526127518161210e565b9050919050565b600060208201905081810360008301526127718161214e565b9050919050565b60006020820190508181036000830152612791816121b4565b9050919050565b600060208201905081810360008301526127b18161221a565b9050919050565b600060208201905081810360008301526127d18161225a565b9050919050565b600060208201905081810360008301526127f1816122c0565b9050919050565b6000602082019050818103600083015261281181612326565b9050919050565b6000602082019050818103600083015261283181612366565b9050919050565b60006020820190508181036000830152612851816123a6565b9050919050565b60006020820190508181036000830152612871816123e6565b9050919050565b6000602082019050818103600083015261289181612426565b9050919050565b600060208201905081810360008301526128b18161248c565b9050919050565b600060208201905081810360008301526128d1816124f2565b9050919050565b60006020820190506128ed60008301846125c7565b92915050565b600060e082019050612908600083018a6125c7565b6129156020830189611efb565b6129226040830188611f8e565b61292f60608301876125b8565b61293c60808301866125b8565b61294960a08301856125a9565b61295660c08301846125a9565b98975050505050505050565b600060808201905061297760008301876125c7565b6129846020830186611efb565b612991604083018561259a565b61299e60608301846125b8565b95945050505050565b6000610200820190506129bd60008301856125c7565b6129ca6020830184611f19565b9392505050565b60006040820190506129e660008301856125c7565b6129f36020830184611f7f565b9392505050565b6000604051905081810181811067ffffffffffffffff82111715612a1d57600080fd5b8060405250919050565b600067ffffffffffffffff821115612a3e57600080fd5b602082029050919050565b6000819050919050565b600060059050919050565b600081519050919050565b6000602082019050919050565b600081905092915050565b600081905092915050565b600082825260208201905092915050565b6000612aa882612aef565b9050919050565b60008115159050919050565b6000819050919050565b60006fffffffffffffffffffffffffffffffff82169050919050565b600061ffff82169050919050565b600073ffffffffffffffffffffffffffffffffffffffff82169050919050565b6000819050919050565b600063ffffffff82169050919050565b600060ff82169050919050565b6000612b4182612b48565b9050919050565b6000612b5382612b5a565b9050919050565b6000612b6582612aef565b9050919050565b60005b83811015612b8a578082015181840152602081019050612b6f565b83811115612b99576000848401525b50505050565b612ba881612aaf565b8114612bb357600080fd5b50565b612bbf81612abb565b8114612bca57600080fd5b50565b612bd681612ac5565b8114612be157600080fd5b50565b612bed81612ae1565b8114612bf857600080fd5b50565b612c0481612b0f565b8114612c0f57600080fd5b50565b612c1b81612b19565b8114612c2657600080fd5b50565b612c3281612b29565b8114612c3d57600080fd5b5056fea365627a7a7231582005124a6f33e7cf9c01e2ff8847408d6bbefcf943145f6902dfad387c65895bfa6c6578706572696d656e74616cf564736f6c634300050c0040",
  "source": "pragma solidity ^0.5.0;\npragma experimental ABIEncoderV2;\n\n// TODO: SafeMath?\n\ncontract GameOfShips {\n    struct Game {\n        address payable creator;\n        bytes32 creationHash;\n        uint prize;\n        uint bombCost;\n        uint16 revealTimeoutBlocks;\n        uint joinTimeoutBlockNumber;\n        uint revealTimeoutBlockNumber;\n        address payable bomber;\n        uint paidBombsCost;\n        uint128 bombsBoard; // Board encoded into bits\n    }\n\n    struct Ship {\n        uint8 beginX;\n        uint8 beginY;\n        bool vertical;\n    }\n\n    event GameCreated(\n        uint32 _gameIndex,\n        address _creator,\n        bytes32 _creationHash,\n        uint _prize,\n        uint _bombCost,\n        uint16 _revealTimeoutBlocks,\n        uint16 _joinTimeoutBlocks\n    );\n    event BombsPlaced(\n        uint32 _gameIndex,\n        address _bomber,\n        uint128 _bombsBoard,\n        uint _paidBombsCost\n    );\n    event ShipsRevealed(\n        uint32 _gameIndex,\n        Ship[5] _ships\n    );\n    event GameFinished(uint32 _gameIndex, bool _isCreatorClaimer);\n    event RevealTimeout(uint32 _gameIndex);\n    event JoinTimeout(uint32 _gameIndex);\n\n    mapping (uint32 => Game) public games;\n    uint32 lastGameIndex = 0;\n    \n    function createGame(\n        bytes32 _creationHash,\n        uint _bombCost,\n        uint16 _revealTimeoutBlocks,\n        uint16 _joinTimeoutBlocks\n    ) public payable {\n        require(_revealTimeoutBlocks >= 10, \"Minimum reveal timeout is 10 blocks\"); // ~2m 20 sec (assuming 14 sec / block)\n        require(_revealTimeoutBlocks <= 43200, \"Maximum reveal timeout is 43200 blocks\"); // ~7 days (assuming 14 sec / block)\n        require(_joinTimeoutBlocks >= 10, \"Minimum join timeout is 10 blocks\"); // ~2m 20 sec (assuming 14 sec / block)\n        require(_joinTimeoutBlocks <= 43200, \"Maximum join timeout is 43200 blocks\"); // ~7 days (assuming 14 sec / block)\n        require(msg.value >= 0.0001 ether, \"Minimum prize is 0.00001 ETH\");\n        require(msg.value <= 1 ether, \"Maximum prize is 1 ETH\");\n        require(_bombCost >= msg.value / 100, \"Bomb cost must be >= 1/100 of prize\");\n        require(_bombCost <= msg.value / 26, \"Bomb cost must be <= 1/26 of prize\");\n        // Create new ref\n        Game storage game = games[++lastGameIndex];\n        // Populate only necessary (on creation) fields\n        game.creator = msg.sender;\n        game.creationHash = _creationHash;\n        game.bombCost = _bombCost;\n        game.prize = msg.value;\n        game.revealTimeoutBlocks = _revealTimeoutBlocks;\n        game.joinTimeoutBlockNumber = block.number + _joinTimeoutBlocks;\n        emit GameCreated(lastGameIndex, msg.sender, _creationHash, msg.value, _bombCost, _revealTimeoutBlocks, _joinTimeoutBlocks);\n    }\n    \n    function setBombs(uint32 _gameIndex, uint128 _bombsBoard) public payable {\n        Game storage game = games[_gameIndex];\n        require(game.creator != address(0), 'Game not found.');\n        require(game.bomber == address(0), \"Bomber already defined.\");\n        uint bombsCost = getBombsCost(_bombsBoard, game.bombCost);\n        require(msg.value >= bombsCost, \"Not enough wei sent.\");\n        // bombsCost / bombCost = number of bombs placed (this way we don't need to run the loops again)\n        require(bombsCost / game.bombCost >= 25, \"You need to place at least 25 bombs.\");\n        game.bomber = msg.sender;\n        game.bombsBoard = _bombsBoard;\n        game.revealTimeoutBlockNumber = block.number + game.revealTimeoutBlocks;\n        game.paidBombsCost = msg.value;\n        emit BombsPlaced(_gameIndex, msg.sender, _bombsBoard, msg.value);\n    }\n\n    function getBoardFieldAtPosition(uint128 _bombsBoard, uint128 _position) private view returns(bool) {\n        // Check byte at given index using bitwise AND operator\n        return (_bombsBoard & (2 ** _position)) != 0;\n    }\n\n    function getBoardFieldAtXY(uint128 _bombsBoard, uint8 _x, uint8 _y) private view returns(bool) {\n        return getBoardFieldAtPosition(_bombsBoard, _y * 10 + _x);\n    }\n    \n    function getBombsCost(uint128 _bombsBoard, uint singleBombCost) private view returns(uint) {\n        uint bombsCost = 0;\n        for (uint8 i = 0; i < 100; ++i) {\n            if (getBoardFieldAtPosition(_bombsBoard, i)) bombsCost += singleBombCost;\n        }\n        \n        return bombsCost;\n    }\n\n    function claimJoinTimeoutReturn(uint32 _gameIndex) public {\n        // Store in memory, because we want to use it's values AFTER deleting from storage\n        Game memory game = games[_gameIndex];\n        require(game.creator != address(0), 'Game not found.');\n        require(block.number >= game.joinTimeoutBlockNumber, \"Timeout not reached yet.\");\n        require(game.bomber == address(0), \"The game already started.\");\n        delete games[_gameIndex];\n        emit JoinTimeout(_gameIndex);\n        emit GameFinished(_gameIndex, true);\n        game.creator.transfer(game.prize);\n    }\n    \n    function finishGame(uint32 _gameIndex, Ship[5] memory _ships, bytes32 _seed) public {\n        // Store in memory, because we want to use it's values AFTER deleting from storage\n        Game memory game = games[_gameIndex];\n        require(game.creator != address(0), 'Game not found.');\n        require(getShipsHash(_ships, _seed) == game.creationHash, \"Invalid hash provided.\");\n        uint128 shipsBoard = validateShipsAndCreateBoard(_ships);\n        delete games[_gameIndex];\n        bool isBomberWinner = (shipsBoard & game.bombsBoard) == shipsBoard;\n        emit ShipsRevealed(_gameIndex, _ships);\n        emit GameFinished(_gameIndex, !isBomberWinner);\n        if (isBomberWinner) {\n            game.bomber.transfer(game.prize);\n            game.creator.transfer(game.paidBombsCost);\n        }\n        else {\n            game.creator.transfer(game.prize + game.paidBombsCost);\n        }\n    }\n    \n    function claimBomberWinByTimeout(uint32 _gameIndex) public {\n        // Store in memory, because we want to use it's values AFTER deleting from storage\n        Game memory game = games[_gameIndex];\n        require(game.creator != address(0), 'Game not found.');\n        require(game.bomber != address(0), \"Bomber is not defined.\");\n        require(block.number >= game.revealTimeoutBlockNumber, \"Timeout not reached yet.\");\n        delete games[_gameIndex];\n        emit RevealTimeout(_gameIndex);\n        emit GameFinished(_gameIndex, false);\n        game.bomber.transfer(game.prize);\n        game.creator.transfer(game.paidBombsCost);\n    }\n    \n    function getShipsHash(Ship[5] memory _ships, bytes32 _seed) private pure returns(bytes32) {\n        bytes memory bytesToHash = new bytes(15 + 32);\n        for (uint8 i = 0; i < 5; ++i) {\n            bytesToHash[i*3] = bytes1(_ships[i].beginX);\n            bytesToHash[i*3+1] = bytes1(_ships[i].beginY);\n            bytesToHash[i*3+2] = bytes1(_ships[i].vertical ? 1 : 0);\n        }\n        for (uint8 i = 0; i < _seed.length; ++i) {\n            bytesToHash[15+i] = _seed[i];\n        }\n        return sha256(bytesToHash);\n    }\n\n    function validateShipsAndCreateBoard(Ship[5] memory _ships) private view returns(uint128) {\n        uint128 shipsBoard = 0;\n        for (uint8 i = 0; i < 5; ++i) {\n            Ship memory ship = _ships[i];\n            if (ship.vertical == true) {\n                // Vertical ship validation\n                require(ship.beginY <= 6, \"Invalid ship placement.\");\n                // Placing on bit-board + overlay check\n                uint8 endY = ship.beginY + 4;\n                for (uint8 shipPartY = ship.beginY; shipPartY < endY; ++shipPartY) {\n                    uint128 shipPartPosition = shipPartY * 10 + ship.beginX;\n                    require(getBoardFieldAtPosition(shipsBoard, shipPartPosition) == false, 'Placed ships cannot overlay!');\n                    shipsBoard += 2 ** shipPartPosition;\n                }\n            }\n            else {\n                // Horizontal ship validation\n                require(ship.beginX <= 6, \"Invalid ship placement.\");\n                // Placing on a bit-board + overlay check\n                uint8 endX = ship.beginX + 4;\n                for (uint8 shipPartX = ship.beginX; shipPartX < endX; ++shipPartX) {\n                    uint128 shipPartPosition = ship.beginY * 10 + shipPartX;\n                    require(getBoardFieldAtPosition(shipsBoard, shipPartPosition) == false, 'Placed ships cannot overlay!');\n                    shipsBoard += 2 ** shipPartPosition;\n                }\n            }\n        }\n\n        return shipsBoard;\n    }\n}",
  "sourcePath": "/var/www/html/ethships/game/contracts/GameOfShips.sol",
  "compiler": {
    "name": "solc",
    "version": "0.5.12+commit.7709ece9.Emscripten.clang"
  },
  "schemaVersion": "3.0.19",
  "updatedAt": "2020-03-22T13:26:18.296Z",
  "networkType": "ethereum",
  "devdoc": {
    "methods": {}
  },
  "userdoc": {
    "methods": {}
  }
}