{
  "contractName": "GameOfShips",
  "abi": [
    {
      "anonymous": false,
      "inputs": [
        {
          "indexed": false,
          "internalType": "address",
          "name": "_address",
          "type": "address"
        },
        {
          "indexed": false,
          "internalType": "uint256",
          "name": "_amount",
          "type": "uint256"
        }
      ],
      "name": "BalanceClaimed",
      "type": "event"
    },
    {
      "anonymous": false,
      "inputs": [
        {
          "indexed": false,
          "internalType": "address",
          "name": "_address",
          "type": "address"
        },
        {
          "indexed": false,
          "internalType": "uint256",
          "name": "_updatedBalance",
          "type": "uint256"
        }
      ],
      "name": "BalanceUpdated",
      "type": "event"
    },
    {
      "anonymous": false,
      "inputs": [
        {
          "indexed": false,
          "internalType": "uint32",
          "name": "_gameIndex",
          "type": "uint32"
        },
        {
          "indexed": false,
          "internalType": "address",
          "name": "_bomber",
          "type": "address"
        },
        {
          "indexed": false,
          "internalType": "uint128",
          "name": "_bombsBoard",
          "type": "uint128"
        },
        {
          "indexed": false,
          "internalType": "uint256",
          "name": "_paidBombsCost",
          "type": "uint256"
        }
      ],
      "name": "BombsPlaced",
      "type": "event"
    },
    {
      "anonymous": false,
      "inputs": [
        {
          "indexed": false,
          "internalType": "uint32",
          "name": "_gameIndex",
          "type": "uint32"
        },
        {
          "indexed": false,
          "internalType": "address",
          "name": "_creator",
          "type": "address"
        },
        {
          "indexed": false,
          "internalType": "bytes32",
          "name": "_creationHash",
          "type": "bytes32"
        },
        {
          "indexed": false,
          "internalType": "uint256",
          "name": "_prize",
          "type": "uint256"
        },
        {
          "indexed": false,
          "internalType": "uint256",
          "name": "_bombCost",
          "type": "uint256"
        },
        {
          "indexed": false,
          "internalType": "uint16",
          "name": "_revealTimeoutBlocks",
          "type": "uint16"
        },
        {
          "indexed": false,
          "internalType": "uint16",
          "name": "_joinTimeoutBlocks",
          "type": "uint16"
        }
      ],
      "name": "GameCreated",
      "type": "event"
    },
    {
      "anonymous": false,
      "inputs": [
        {
          "indexed": false,
          "internalType": "uint32",
          "name": "_gameIndex",
          "type": "uint32"
        },
        {
          "indexed": false,
          "internalType": "uint256",
          "name": "_creatorTransferAmount",
          "type": "uint256"
        },
        {
          "indexed": false,
          "internalType": "uint256",
          "name": "_bomberTransferAmount",
          "type": "uint256"
        }
      ],
      "name": "GameFinished",
      "type": "event"
    },
    {
      "anonymous": false,
      "inputs": [
        {
          "indexed": false,
          "internalType": "uint32",
          "name": "_gameIndex",
          "type": "uint32"
        }
      ],
      "name": "JoinTimeout",
      "type": "event"
    },
    {
      "anonymous": false,
      "inputs": [
        {
          "indexed": false,
          "internalType": "uint32",
          "name": "_gameIndex",
          "type": "uint32"
        }
      ],
      "name": "RevealTimeout",
      "type": "event"
    },
    {
      "anonymous": false,
      "inputs": [
        {
          "indexed": false,
          "internalType": "uint32",
          "name": "_gameIndex",
          "type": "uint32"
        },
        {
          "components": [
            {
              "internalType": "uint8",
              "name": "beginX",
              "type": "uint8"
            },
            {
              "internalType": "uint8",
              "name": "beginY",
              "type": "uint8"
            },
            {
              "internalType": "bool",
              "name": "vertical",
              "type": "bool"
            }
          ],
          "indexed": false,
          "internalType": "struct GameOfShips.Ship[5]",
          "name": "_ships",
          "type": "tuple[5]"
        },
        {
          "indexed": false,
          "internalType": "uint8",
          "name": "_sunkenShipsCount",
          "type": "uint8"
        }
      ],
      "name": "ShipsRevealed",
      "type": "event"
    },
    {
      "constant": true,
      "inputs": [
        {
          "internalType": "address",
          "name": "",
          "type": "address"
        }
      ],
      "name": "balances",
      "outputs": [
        {
          "internalType": "uint256",
          "name": "",
          "type": "uint256"
        }
      ],
      "payable": false,
      "stateMutability": "view",
      "type": "function"
    },
    {
      "constant": true,
      "inputs": [
        {
          "internalType": "uint32",
          "name": "",
          "type": "uint32"
        }
      ],
      "name": "games",
      "outputs": [
        {
          "internalType": "address",
          "name": "creator",
          "type": "address"
        },
        {
          "internalType": "bytes32",
          "name": "creationHash",
          "type": "bytes32"
        },
        {
          "internalType": "uint256",
          "name": "prize",
          "type": "uint256"
        },
        {
          "internalType": "uint256",
          "name": "bombCost",
          "type": "uint256"
        },
        {
          "internalType": "uint16",
          "name": "revealTimeoutBlocks",
          "type": "uint16"
        },
        {
          "internalType": "uint256",
          "name": "joinTimeoutBlockNumber",
          "type": "uint256"
        },
        {
          "internalType": "uint256",
          "name": "revealTimeoutBlockNumber",
          "type": "uint256"
        },
        {
          "internalType": "address",
          "name": "bomber",
          "type": "address"
        },
        {
          "internalType": "uint256",
          "name": "paidBombsCost",
          "type": "uint256"
        },
        {
          "internalType": "uint128",
          "name": "bombsBoard",
          "type": "uint128"
        }
      ],
      "payable": false,
      "stateMutability": "view",
      "type": "function"
    },
    {
      "constant": false,
      "inputs": [
        {
          "internalType": "bytes32",
          "name": "_creationHash",
          "type": "bytes32"
        },
        {
          "internalType": "uint256",
          "name": "_bombCost",
          "type": "uint256"
        },
        {
          "internalType": "uint16",
          "name": "_revealTimeoutBlocks",
          "type": "uint16"
        },
        {
          "internalType": "uint16",
          "name": "_joinTimeoutBlocks",
          "type": "uint16"
        }
      ],
      "name": "createGame",
      "outputs": [],
      "payable": true,
      "stateMutability": "payable",
      "type": "function"
    },
    {
      "constant": false,
      "inputs": [
        {
          "internalType": "uint32",
          "name": "_gameIndex",
          "type": "uint32"
        },
        {
          "internalType": "uint128",
          "name": "_bombsBoard",
          "type": "uint128"
        }
      ],
      "name": "setBombs",
      "outputs": [],
      "payable": true,
      "stateMutability": "payable",
      "type": "function"
    },
    {
      "constant": false,
      "inputs": [
        {
          "internalType": "uint32",
          "name": "_gameIndex",
          "type": "uint32"
        }
      ],
      "name": "claimJoinTimeoutReturn",
      "outputs": [],
      "payable": false,
      "stateMutability": "nonpayable",
      "type": "function"
    },
    {
      "constant": false,
      "inputs": [
        {
          "internalType": "uint32",
          "name": "_gameIndex",
          "type": "uint32"
        },
        {
          "components": [
            {
              "internalType": "uint8",
              "name": "beginX",
              "type": "uint8"
            },
            {
              "internalType": "uint8",
              "name": "beginY",
              "type": "uint8"
            },
            {
              "internalType": "bool",
              "name": "vertical",
              "type": "bool"
            }
          ],
          "internalType": "struct GameOfShips.Ship[5]",
          "name": "_ships",
          "type": "tuple[5]"
        },
        {
          "internalType": "bytes32",
          "name": "_seed",
          "type": "bytes32"
        }
      ],
      "name": "finishGame",
      "outputs": [],
      "payable": false,
      "stateMutability": "nonpayable",
      "type": "function"
    },
    {
      "constant": false,
      "inputs": [
        {
          "internalType": "uint32",
          "name": "_gameIndex",
          "type": "uint32"
        }
      ],
      "name": "claimBomberWinByTimeout",
      "outputs": [],
      "payable": false,
      "stateMutability": "nonpayable",
      "type": "function"
    },
    {
      "constant": false,
      "inputs": [
        {
          "internalType": "address",
          "name": "_address",
          "type": "address"
        }
      ],
      "name": "claimBalance",
      "outputs": [],
      "payable": false,
      "stateMutability": "nonpayable",
      "type": "function"
    },
    {
      "constant": true,
      "inputs": [
        {
          "internalType": "address",
          "name": "_address",
          "type": "address"
        }
      ],
      "name": "getBalance",
      "outputs": [
        {
          "internalType": "uint256",
          "name": "",
          "type": "uint256"
        }
      ],
      "payable": false,
      "stateMutability": "view",
      "type": "function"
    }
  ],
  "bytecode": "0x60806040526000600260006101000a81548163ffffffff021916908363ffffffff16021790555034801561003257600080fd5b50613473806100426000396000f3fe6080604052600436106100865760003560e01c8063ae80cf8f11610059578063ae80cf8f14610136578063b03a127414610152578063b633e4cd1461017b578063da5d2fac146101a4578063f8b2cb4f146101ea57610086565b806322c287ab1461008b57806327e235e3146100b457806340b8207f146100f15780636f395c051461010d575b600080fd5b34801561009757600080fd5b506100b260048036036100ad91908101906124e7565b610227565b005b3480156100c057600080fd5b506100db60048036036100d69190810190612409565b6107a5565b6040516100e89190613030565b60405180910390f35b61010b60048036036101069190810190612538565b6107bd565b005b34801561011957600080fd5b50610134600480360361012f91908101906124be565b610a97565b005b610150600480360361014b919081019061245b565b61104d565b005b34801561015e57600080fd5b50610179600480360361017491908101906124be565b6113db565b005b34801561018757600080fd5b506101a2600480360361019d9190810190612409565b6118b6565b005b3480156101b057600080fd5b506101cb60048036036101c691908101906124be565b611aa1565b6040516101e19a99989796959493929190612d0b565b60405180910390f35b3480156101f657600080fd5b50610211600480360361020c9190810190612409565b611b5f565b60405161021e9190613030565b60405180910390f35b61022f6121b7565b6000808563ffffffff1663ffffffff168152602001908152602001600020604051806101400160405290816000820160009054906101000a900473ffffffffffffffffffffffffffffffffffffffff1673ffffffffffffffffffffffffffffffffffffffff1673ffffffffffffffffffffffffffffffffffffffff1681526020016001820154815260200160028201548152602001600382015481526020016004820160009054906101000a900461ffff1661ffff1661ffff16815260200160058201548152602001600682015481526020016007820160009054906101000a900473ffffffffffffffffffffffffffffffffffffffff1673ffffffffffffffffffffffffffffffffffffffff1673ffffffffffffffffffffffffffffffffffffffff168152602001600882015481526020016009820160009054906101000a90046fffffffffffffffffffffffffffffffff166fffffffffffffffffffffffffffffffff166fffffffffffffffffffffffffffffffff16815250509050600073ffffffffffffffffffffffffffffffffffffffff16816000015173ffffffffffffffffffffffffffffffffffffffff161415610421576040517f08c379a000000000000000000000000000000000000000000000000000000000815260040161041890612e10565b60405180910390fd5b80602001516104308484611ba8565b14610470576040517f08c379a000000000000000000000000000000000000000000000000000000000815260040161046790612ed0565b60405180910390fd5b600061048184836101200151611df7565b90506000808663ffffffff1663ffffffff168152602001908152602001600020600080820160006101000a81549073ffffffffffffffffffffffffffffffffffffffff02191690556001820160009055600282016000905560038201600090556004820160006101000a81549061ffff0219169055600582016000905560068201600090556007820160006101000a81549073ffffffffffffffffffffffffffffffffffffffff021916905560088201600090556009820160006101000a8154906fffffffffffffffffffffffffffffffff02191690555050600060058260ff168460400151028161056f57fe5b0490506000818461010001518560400151010390507f10a12948dac4bc0d11cf2cb78552e1a3dc3e546ad23dd72558a6f6369fcd14688787856040516105b79392919061311a565b60405180910390a17f046636f0af9fbefdec77aa1d3189e3ae3693351147643e6d6aaa2bef20cd617b8782846040516105f29392919061318a565b60405180910390a18060016000866000015173ffffffffffffffffffffffffffffffffffffffff1673ffffffffffffffffffffffffffffffffffffffff1681526020019081526020016000206000828254019250508190555081600160008660e0015173ffffffffffffffffffffffffffffffffffffffff1673ffffffffffffffffffffffffffffffffffffffff168152602001908152602001600020600082825401925050819055507f8ad64a0ac7700dd8425ab0499f107cb6e2cd1581d803c5b8c1c79dcb8190b1af846000015160016000876000015173ffffffffffffffffffffffffffffffffffffffff1673ffffffffffffffffffffffffffffffffffffffff16815260200190815260200160002054604051610714929190612da7565b60405180910390a17f8ad64a0ac7700dd8425ab0499f107cb6e2cd1581d803c5b8c1c79dcb8190b1af8460e00151600160008760e0015173ffffffffffffffffffffffffffffffffffffffff1673ffffffffffffffffffffffffffffffffffffffff16815260200190815260200160002054604051610794929190612da7565b60405180910390a150505050505050565b60016020528060005260406000206000915090505481565b60008060008463ffffffff1663ffffffff1681526020019081526020016000209050600073ffffffffffffffffffffffffffffffffffffffff168160000160009054906101000a900473ffffffffffffffffffffffffffffffffffffffff1673ffffffffffffffffffffffffffffffffffffffff161415610873576040517f08c379a000000000000000000000000000000000000000000000000000000000815260040161086a90612e10565b60405180910390fd5b600073ffffffffffffffffffffffffffffffffffffffff168160070160009054906101000a900473ffffffffffffffffffffffffffffffffffffffff1673ffffffffffffffffffffffffffffffffffffffff1614610906576040517f08c379a00000000000000000000000000000000000000000000000000000000081526004016108fd90612e30565b60405180910390fd5b6000610916838360030154612139565b90508034101561095b576040517f08c379a000000000000000000000000000000000000000000000000000000000815260040161095290612f50565b60405180910390fd5b60198260030154828161096a57fe5b0410156109ac576040517f08c379a00000000000000000000000000000000000000000000000000000000081526004016109a390612f30565b60405180910390fd5b338260070160006101000a81548173ffffffffffffffffffffffffffffffffffffffff021916908373ffffffffffffffffffffffffffffffffffffffff160217905550828260090160006101000a8154816fffffffffffffffffffffffffffffffff02191690836fffffffffffffffffffffffffffffffff1602179055508160040160009054906101000a900461ffff1661ffff16430182600601819055503482600801819055507fc2c8952413d90d1b917cf0cb878ac14548f52a72eaa1359b703e35f32008db4184338534604051610a8994939291906130d5565b60405180910390a150505050565b610a9f6121b7565b6000808363ffffffff1663ffffffff168152602001908152602001600020604051806101400160405290816000820160009054906101000a900473ffffffffffffffffffffffffffffffffffffffff1673ffffffffffffffffffffffffffffffffffffffff1673ffffffffffffffffffffffffffffffffffffffff1681526020016001820154815260200160028201548152602001600382015481526020016004820160009054906101000a900461ffff1661ffff1661ffff16815260200160058201548152602001600682015481526020016007820160009054906101000a900473ffffffffffffffffffffffffffffffffffffffff1673ffffffffffffffffffffffffffffffffffffffff1673ffffffffffffffffffffffffffffffffffffffff168152602001600882015481526020016009820160009054906101000a90046fffffffffffffffffffffffffffffffff166fffffffffffffffffffffffffffffffff166fffffffffffffffffffffffffffffffff16815250509050600073ffffffffffffffffffffffffffffffffffffffff16816000015173ffffffffffffffffffffffffffffffffffffffff161415610c91576040517f08c379a0000000000000000000000000000000000000000000000000000000008152600401610c8890612e10565b60405180910390fd5b600073ffffffffffffffffffffffffffffffffffffffff168160e0015173ffffffffffffffffffffffffffffffffffffffff161415610d05576040517f08c379a0000000000000000000000000000000000000000000000000000000008152600401610cfc90612e70565b60405180910390fd5b8060c00151431015610d4c576040517f08c379a0000000000000000000000000000000000000000000000000000000008152600401610d4390612fb0565b60405180910390fd5b6000808363ffffffff1663ffffffff168152602001908152602001600020600080820160006101000a81549073ffffffffffffffffffffffffffffffffffffffff02191690556001820160009055600282016000905560038201600090556004820160006101000a81549061ffff0219169055600582016000905560068201600090556007820160006101000a81549073ffffffffffffffffffffffffffffffffffffffff021916905560088201600090556009820160006101000a8154906fffffffffffffffffffffffffffffffff021916905550507ffd858131d7b916891e8e2ca8bc0bfa5740ca46d588b9d3c074f359b1a54e3b3e82604051610e52919061304b565b60405180910390a17f046636f0af9fbefdec77aa1d3189e3ae3693351147643e6d6aaa2bef20cd617b828261010001518360400151604051610e969392919061318a565b60405180910390a180610100015160016000836000015173ffffffffffffffffffffffffffffffffffffffff1673ffffffffffffffffffffffffffffffffffffffff168152602001908152602001600020600082825401925050819055508060400151600160008360e0015173ffffffffffffffffffffffffffffffffffffffff1673ffffffffffffffffffffffffffffffffffffffff168152602001908152602001600020600082825401925050819055507f8ad64a0ac7700dd8425ab0499f107cb6e2cd1581d803c5b8c1c79dcb8190b1af816000015160016000846000015173ffffffffffffffffffffffffffffffffffffffff1673ffffffffffffffffffffffffffffffffffffffff16815260200190815260200160002054604051610fc1929190612da7565b60405180910390a17f8ad64a0ac7700dd8425ab0499f107cb6e2cd1581d803c5b8c1c79dcb8190b1af8160e00151600160008460e0015173ffffffffffffffffffffffffffffffffffffffff1673ffffffffffffffffffffffffffffffffffffffff16815260200190815260200160002054604051611041929190612da7565b60405180910390a15050565b600a8261ffff161015611095576040517f08c379a000000000000000000000000000000000000000000000000000000000815260040161108c90612eb0565b60405180910390fd5b61a8c08261ffff1611156110de576040517f08c379a00000000000000000000000000000000000000000000000000000000081526004016110d590613010565b60405180910390fd5b600a8161ffff161015611126576040517f08c379a000000000000000000000000000000000000000000000000000000000815260040161111d90612f10565b60405180910390fd5b61a8c08161ffff16111561116f576040517f08c379a000000000000000000000000000000000000000000000000000000000815260040161116690612ff0565b60405180910390fd5b655af3107a40003410156111b8576040517f08c379a00000000000000000000000000000000000000000000000000000000081526004016111af90612f70565b60405180910390fd5b670de0b6b3a7640000341115611203576040517f08c379a00000000000000000000000000000000000000000000000000000000081526004016111fa90612f90565b60405180910390fd5b6064348161120d57fe5b04831015611250576040517f08c379a000000000000000000000000000000000000000000000000000000000815260040161124790612fd0565b60405180910390fd5b601a348161125a57fe5b0483111561129d576040517f08c379a000000000000000000000000000000000000000000000000000000000815260040161129490612e90565b60405180910390fd5b60008060006002600081819054906101000a900463ffffffff1660010191906101000a81548163ffffffff021916908363ffffffff160217905563ffffffff1663ffffffff1681526020019081526020016000209050338160000160006101000a81548173ffffffffffffffffffffffffffffffffffffffff021916908373ffffffffffffffffffffffffffffffffffffffff160217905550848160010181905550838160030181905550348160020181905550828160040160006101000a81548161ffff021916908361ffff1602179055508161ffff16430181600501819055507f24985762039c9bb2e45c8b4f0e475c5f16d2b2d4084d8360f39bcd2d8f28992f600260009054906101000a900463ffffffff163387348888886040516113cc9796959493929190613066565b60405180910390a15050505050565b6113e36121b7565b6000808363ffffffff1663ffffffff168152602001908152602001600020604051806101400160405290816000820160009054906101000a900473ffffffffffffffffffffffffffffffffffffffff1673ffffffffffffffffffffffffffffffffffffffff1673ffffffffffffffffffffffffffffffffffffffff1681526020016001820154815260200160028201548152602001600382015481526020016004820160009054906101000a900461ffff1661ffff1661ffff16815260200160058201548152602001600682015481526020016007820160009054906101000a900473ffffffffffffffffffffffffffffffffffffffff1673ffffffffffffffffffffffffffffffffffffffff1673ffffffffffffffffffffffffffffffffffffffff168152602001600882015481526020016009820160009054906101000a90046fffffffffffffffffffffffffffffffff166fffffffffffffffffffffffffffffffff166fffffffffffffffffffffffffffffffff16815250509050600073ffffffffffffffffffffffffffffffffffffffff16816000015173ffffffffffffffffffffffffffffffffffffffff1614156115d5576040517f08c379a00000000000000000000000000000000000000000000000000000000081526004016115cc90612e10565b60405180910390fd5b8060a0015143101561161c576040517f08c379a000000000000000000000000000000000000000000000000000000000815260040161161390612fb0565b60405180910390fd5b600073ffffffffffffffffffffffffffffffffffffffff168160e0015173ffffffffffffffffffffffffffffffffffffffff161461168f576040517f08c379a000000000000000000000000000000000000000000000000000000000815260040161168690612e50565b60405180910390fd5b6000808363ffffffff1663ffffffff168152602001908152602001600020600080820160006101000a81549073ffffffffffffffffffffffffffffffffffffffff02191690556001820160009055600282016000905560038201600090556004820160006101000a81549061ffff0219169055600582016000905560068201600090556007820160006101000a81549073ffffffffffffffffffffffffffffffffffffffff021916905560088201600090556009820160006101000a8154906fffffffffffffffffffffffffffffffff021916905550507f258d7183049b93fab1c2bfa7b6b017b265bf8ae00cba8d1b5de12a658c0c7bd582604051611795919061304b565b60405180910390a17f046636f0af9fbefdec77aa1d3189e3ae3693351147643e6d6aaa2bef20cd617b82826040015160006040516117d593929190613153565b60405180910390a1806040015160016000836000015173ffffffffffffffffffffffffffffffffffffffff1673ffffffffffffffffffffffffffffffffffffffff168152602001908152602001600020600082825401925050819055507f8ad64a0ac7700dd8425ab0499f107cb6e2cd1581d803c5b8c1c79dcb8190b1af816000015160016000846000015173ffffffffffffffffffffffffffffffffffffffff1673ffffffffffffffffffffffffffffffffffffffff168152602001908152602001600020546040516118aa929190612da7565b60405180910390a15050565b6000600160008373ffffffffffffffffffffffffffffffffffffffff1673ffffffffffffffffffffffffffffffffffffffff1681526020019081526020016000205490506000600160008473ffffffffffffffffffffffffffffffffffffffff1673ffffffffffffffffffffffffffffffffffffffff1681526020019081526020016000208190555060008273ffffffffffffffffffffffffffffffffffffffff168260405161196590612cf6565b60006040518083038185875af1925050503d80600081146119a2576040519150601f19603f3d011682016040523d82523d6000602084013e6119a7565b606091505b50509050806119eb576040517f08c379a00000000000000000000000000000000000000000000000000000000081526004016119e290612ef0565b60405180910390fd5b7f8ad64a0ac7700dd8425ab0499f107cb6e2cd1581d803c5b8c1c79dcb8190b1af83600160008673ffffffffffffffffffffffffffffffffffffffff1673ffffffffffffffffffffffffffffffffffffffff16815260200190815260200160002054604051611a5b929190612da7565b60405180910390a17fe64799e036cf6322d0c3b6d11f4e2fc9d1bd9bb5938dd3d6835921a427c89b8f8383604051611a94929190612da7565b60405180910390a1505050565b60006020528060005260406000206000915090508060000160009054906101000a900473ffffffffffffffffffffffffffffffffffffffff16908060010154908060020154908060030154908060040160009054906101000a900461ffff16908060050154908060060154908060070160009054906101000a900473ffffffffffffffffffffffffffffffffffffffff16908060080154908060090160009054906101000a90046fffffffffffffffffffffffffffffffff1690508a565b6000600160008373ffffffffffffffffffffffffffffffffffffffff1673ffffffffffffffffffffffffffffffffffffffff168152602001908152602001600020549050919050565b60006060602f6040519080825280601f01601f191660200182016040528015611be05781602001600182028038833980820191505090505b50905060008090505b60058160ff161015611d2857848160ff1660058110611c0457fe5b60200201516000015160f81b826003830260ff1681518110611c2257fe5b60200101907effffffffffffffffffffffffffffffffffffffffffffffffffffffffffffff1916908160001a905350848160ff1660058110611c6057fe5b60200201516020015160f81b826001600384020160ff1681518110611c8157fe5b60200101907effffffffffffffffffffffffffffffffffffffffffffffffffffffffffffff1916908160001a905350848160ff1660058110611cbf57fe5b602002015160400151611cd3576000611cd6565b60015b60f81b826002600384020160ff1681518110611cee57fe5b60200101907effffffffffffffffffffffffffffffffffffffffffffffffffffffffffffff1916908160001a905350806001019050611be9565b5060008090505b602060ff168160ff161015611d9d57838160ff1660208110611d4d57fe5b1a60f81b8282600f0160ff1681518110611d6357fe5b60200101907effffffffffffffffffffffffffffffffffffffffffffffffffffffffffffff1916908160001a905350806001019050611d2f565b50600281604051611dae9190612cdf565b602060405180830381855afa158015611dcb573d6000803e3d6000fd5b5050506040513d601f19601f82011682018060405250611dee9190810190612432565b91505092915050565b60008060009050600080905060008090505b60058160ff16101561212d57611e1d61224f565b868260ff1660058110611e2c57fe5b60200201519050600080905060011515826040015115151415611fad576005826020015160ff161115611e94576040517f08c379a0000000000000000000000000000000000000000000000000000000008152600401611e8b90612dd0565b60405180910390fd5b6009826000015160ff161115611edf576040517f08c379a0000000000000000000000000000000000000000000000000000000008152600401611ed690612dd0565b60405180910390fd5b6000600483602001510190506000836020015190505b8160ff168160ff1611611fa65760008460000151600a83020160ff16905060001515611f218983612180565b151514611f63576040517f08c379a0000000000000000000000000000000000000000000000000000000008152600401611f5a90612df0565b60405180910390fd5b806fffffffffffffffffffffffffffffffff1660020a8801975060011515611f8b8b83612180565b15151415611f9a578360010193505b50806001019050611ef5565b505061210d565b6005826000015160ff161115611ff8576040517f08c379a0000000000000000000000000000000000000000000000000000000008152600401611fef90612dd0565b60405180910390fd5b6009826020015160ff161115612043576040517f08c379a000000000000000000000000000000000000000000000000000000000815260040161203a90612dd0565b60405180910390fd5b6000600483600001510190506000836000015190505b8160ff168160ff161161210a57600081600a8660200151020160ff169050600015156120858983612180565b1515146120c7576040517f08c379a00000000000000000000000000000000000000000000000000000000081526004016120be90612df0565b60405180910390fd5b806fffffffffffffffffffffffffffffffff1660020a88019750600115156120ef8b83612180565b151514156120fe578360010193505b50806001019050612059565b50505b60058160ff161415612120578360010193505b5050806001019050611e09565b50809250505092915050565b6000806000905060008090505b60648160ff1610156121755761215f858260ff16612180565b1561216a5783820191505b806001019050612146565b508091505092915050565b600080826fffffffffffffffffffffffffffffffff1660020a84166fffffffffffffffffffffffffffffffff161415905092915050565b604051806101400160405280600073ffffffffffffffffffffffffffffffffffffffff168152602001600080191681526020016000815260200160008152602001600061ffff1681526020016000815260200160008152602001600073ffffffffffffffffffffffffffffffffffffffff1681526020016000815260200160006fffffffffffffffffffffffffffffffff1681525090565b6040518060600160405280600060ff168152602001600060ff1681526020016000151581525090565b60008135905061228781613378565b92915050565b600082601f83011261229e57600080fd5b60056122b16122ac826131ee565b6131c1565b915081838560608402820111156122c757600080fd5b60005b838110156122f757816122dd8882612340565b8452602084019350606083019250506001810190506122ca565b5050505092915050565b6000813590506123108161338f565b92915050565b600081359050612325816133a6565b92915050565b60008151905061233a816133a6565b92915050565b60006060828403121561235257600080fd5b61235c60606131c1565b9050600061236c848285016123f4565b6000830152506020612380848285016123f4565b602083015250604061239484828501612301565b60408301525092915050565b6000813590506123af816133bd565b92915050565b6000813590506123c4816133d4565b92915050565b6000813590506123d9816133eb565b92915050565b6000813590506123ee81613402565b92915050565b60008135905061240381613419565b92915050565b60006020828403121561241b57600080fd5b600061242984828501612278565b91505092915050565b60006020828403121561244457600080fd5b60006124528482850161232b565b91505092915050565b6000806000806080858703121561247157600080fd5b600061247f87828801612316565b9450506020612490878288016123ca565b93505060406124a1878288016123b5565b92505060606124b2878288016123b5565b91505092959194509250565b6000602082840312156124d057600080fd5b60006124de848285016123df565b91505092915050565b600080600061022084860312156124fd57600080fd5b600061250b868287016123df565b935050602061251c8682870161228d565b92505061020061252e86828701612316565b9150509250925092565b6000806040838503121561254b57600080fd5b6000612559858286016123df565b925050602061256a858286016123a0565b9150509250929050565b60006125808383612c43565b60608301905092915050565b612595816132fd565b82525050565b6125a481613264565b82525050565b6125b38161321a565b6125bd818461323d565b92506125c882613210565b8060005b838110156125f95781516125e08782612574565b96506125eb83613230565b9250506001810190506125cc565b505050505050565b61260a81613276565b82525050565b61261981613282565b82525050565b600061262a82613225565b6126348185613248565b9350612644818560208601613345565b80840191505092915050565b6126598161330f565b82525050565b600061266c601783613253565b91507f496e76616c6964207368697020706c6163656d656e742e0000000000000000006000830152602082019050919050565b60006126ac601c83613253565b91507f506c616365642073686970732063616e6e6f74206f7665726c617921000000006000830152602082019050919050565b60006126ec600f83613253565b91507f47616d65206e6f7420666f756e642e00000000000000000000000000000000006000830152602082019050919050565b600061272c601783613253565b91507f426f6d62657220616c726561647920646566696e65642e0000000000000000006000830152602082019050919050565b600061276c601983613253565b91507f5468652067616d6520616c726561647920737461727465642e000000000000006000830152602082019050919050565b60006127ac601683613253565b91507f426f6d626572206973206e6f7420646566696e65642e000000000000000000006000830152602082019050919050565b60006127ec602283613253565b91507f426f6d6220636f7374206d757374206265203c3d20312f3236206f662070726960008301527f7a650000000000000000000000000000000000000000000000000000000000006020830152604082019050919050565b6000612852602383613253565b91507f4d696e696d756d2072657665616c2074696d656f757420697320313020626c6f60008301527f636b7300000000000000000000000000000000000000000000000000000000006020830152604082019050919050565b60006128b8601683613253565b91507f496e76616c696420686173682070726f76696465642e000000000000000000006000830152602082019050919050565b60006128f8601583613253565b91507f42616c616e636520636c61696d206661696c65642e00000000000000000000006000830152602082019050919050565b6000612938602183613253565b91507f4d696e696d756d206a6f696e2074696d656f757420697320313020626c6f636b60008301527f73000000000000000000000000000000000000000000000000000000000000006020830152604082019050919050565b600061299e602483613253565b91507f596f75206e65656420746f20706c616365206174206c6561737420323520626f60008301527f6d62732e000000000000000000000000000000000000000000000000000000006020830152604082019050919050565b6000612a04601483613253565b91507f4e6f7420656e6f756768207765692073656e742e0000000000000000000000006000830152602082019050919050565b6000612a44601c83613253565b91507f4d696e696d756d207072697a6520697320302e303030303120455448000000006000830152602082019050919050565b6000612a84600083613248565b9150600082019050919050565b6000612a9e601683613253565b91507f4d6178696d756d207072697a65206973203120455448000000000000000000006000830152602082019050919050565b6000612ade601883613253565b91507f54696d656f7574206e6f742072656163686564207965742e00000000000000006000830152602082019050919050565b6000612b1e602383613253565b91507f426f6d6220636f7374206d757374206265203e3d20312f313030206f6620707260008301527f697a6500000000000000000000000000000000000000000000000000000000006020830152604082019050919050565b6000612b84602483613253565b91507f4d6178696d756d206a6f696e2074696d656f757420697320343332303020626c60008301527f6f636b73000000000000000000000000000000000000000000000000000000006020830152604082019050919050565b6000612bea602683613253565b91507f4d6178696d756d2072657665616c2074696d656f75742069732034333230302060008301527f626c6f636b7300000000000000000000000000000000000000000000000000006020830152604082019050919050565b606082016000820151612c596000850182612cc1565b506020820151612c6c6020850182612cc1565b506040820151612c7f6040850182612601565b50505050565b612c8e8161328c565b82525050565b612c9d816132a8565b82525050565b612cac816132d6565b82525050565b612cbb816132e0565b82525050565b612cca816132f0565b82525050565b612cd9816132f0565b82525050565b6000612ceb828461261f565b915081905092915050565b6000612d0182612a77565b9150819050919050565b600061014082019050612d21600083018d61259b565b612d2e602083018c612610565b612d3b604083018b612ca3565b612d48606083018a612ca3565b612d556080830189612c94565b612d6260a0830188612ca3565b612d6f60c0830187612ca3565b612d7c60e083018661259b565b612d8a610100830185612ca3565b612d98610120830184612c85565b9b9a5050505050505050505050565b6000604082019050612dbc600083018561259b565b612dc96020830184612ca3565b9392505050565b60006020820190508181036000830152612de98161265f565b9050919050565b60006020820190508181036000830152612e098161269f565b9050919050565b60006020820190508181036000830152612e29816126df565b9050919050565b60006020820190508181036000830152612e498161271f565b9050919050565b60006020820190508181036000830152612e698161275f565b9050919050565b60006020820190508181036000830152612e898161279f565b9050919050565b60006020820190508181036000830152612ea9816127df565b9050919050565b60006020820190508181036000830152612ec981612845565b9050919050565b60006020820190508181036000830152612ee9816128ab565b9050919050565b60006020820190508181036000830152612f09816128eb565b9050919050565b60006020820190508181036000830152612f298161292b565b9050919050565b60006020820190508181036000830152612f4981612991565b9050919050565b60006020820190508181036000830152612f69816129f7565b9050919050565b60006020820190508181036000830152612f8981612a37565b9050919050565b60006020820190508181036000830152612fa981612a91565b9050919050565b60006020820190508181036000830152612fc981612ad1565b9050919050565b60006020820190508181036000830152612fe981612b11565b9050919050565b6000602082019050818103600083015261300981612b77565b9050919050565b6000602082019050818103600083015261302981612bdd565b9050919050565b60006020820190506130456000830184612ca3565b92915050565b60006020820190506130606000830184612cb2565b92915050565b600060e08201905061307b600083018a612cb2565b613088602083018961258c565b6130956040830188612610565b6130a26060830187612ca3565b6130af6080830186612ca3565b6130bc60a0830185612c94565b6130c960c0830184612c94565b98975050505050505050565b60006080820190506130ea6000830187612cb2565b6130f7602083018661258c565b6131046040830185612c85565b6131116060830184612ca3565b95945050505050565b6000610220820190506131306000830186612cb2565b61313d60208301856125aa565b61314b610200830184612cd0565b949350505050565b60006060820190506131686000830186612cb2565b6131756020830185612ca3565b6131826040830184612650565b949350505050565b600060608201905061319f6000830186612cb2565b6131ac6020830185612ca3565b6131b96040830184612ca3565b949350505050565b6000604051905081810181811067ffffffffffffffff821117156131e457600080fd5b8060405250919050565b600067ffffffffffffffff82111561320557600080fd5b602082029050919050565b6000819050919050565b600060059050919050565b600081519050919050565b6000602082019050919050565b600081905092915050565b600081905092915050565b600082825260208201905092915050565b600061326f826132b6565b9050919050565b60008115159050919050565b6000819050919050565b60006fffffffffffffffffffffffffffffffff82169050919050565b600061ffff82169050919050565b600073ffffffffffffffffffffffffffffffffffffffff82169050919050565b6000819050919050565b600063ffffffff82169050919050565b600060ff82169050919050565b600061330882613321565b9050919050565b600061331a826132d6565b9050919050565b600061332c82613333565b9050919050565b600061333e826132b6565b9050919050565b60005b83811015613363578082015181840152602081019050613348565b83811115613372576000848401525b50505050565b61338181613264565b811461338c57600080fd5b50565b61339881613276565b81146133a357600080fd5b50565b6133af81613282565b81146133ba57600080fd5b50565b6133c68161328c565b81146133d157600080fd5b50565b6133dd816132a8565b81146133e857600080fd5b50565b6133f4816132d6565b81146133ff57600080fd5b50565b61340b816132e0565b811461341657600080fd5b50565b613422816132f0565b811461342d57600080fd5b5056fea365627a7a72315820ad6b8c2e71537778e1992df9f32bc7f573ad4380a36225f17de7304a62803a236c6578706572696d656e74616cf564736f6c634300050c0040",
  "source": "pragma solidity ^0.5.0;\npragma experimental ABIEncoderV2;\n\n// TODO: SafeMath?\n\ncontract GameOfShips {\n    struct Game {\n        address creator;\n        bytes32 creationHash;\n        uint prize;\n        uint bombCost;\n        uint16 revealTimeoutBlocks;\n        uint joinTimeoutBlockNumber;\n        uint revealTimeoutBlockNumber;\n        address bomber;\n        uint paidBombsCost;\n        uint128 bombsBoard; // Board encoded into bits\n    }\n\n    struct Ship {\n        uint8 beginX;\n        uint8 beginY;\n        bool vertical;\n    }\n\n    event GameCreated(\n        uint32 _gameIndex,\n        address _creator,\n        bytes32 _creationHash,\n        uint _prize,\n        uint _bombCost,\n        uint16 _revealTimeoutBlocks,\n        uint16 _joinTimeoutBlocks\n    );\n    event BombsPlaced(\n        uint32 _gameIndex,\n        address _bomber,\n        uint128 _bombsBoard,\n        uint _paidBombsCost\n    );\n    event ShipsRevealed(\n        uint32 _gameIndex,\n        Ship[5] _ships,\n        uint8 _sunkenShipsCount\n    );\n    event GameFinished(uint32 _gameIndex, uint _creatorTransferAmount, uint _bomberTransferAmount);\n    event RevealTimeout(uint32 _gameIndex);\n    event JoinTimeout(uint32 _gameIndex);\n    event BalanceClaimed(address _address, uint _amount);\n    event BalanceUpdated(address _address, uint _updatedBalance);\n\n    mapping (uint32 => Game) public games;\n    mapping (address => uint) public balances;\n\n    uint32 lastGameIndex = 0;\n    \n    function createGame(\n        bytes32 _creationHash,\n        uint _bombCost,\n        uint16 _revealTimeoutBlocks,\n        uint16 _joinTimeoutBlocks\n    ) public payable {\n        require(_revealTimeoutBlocks >= 10, \"Minimum reveal timeout is 10 blocks\"); // ~2m 20 sec (assuming 14 sec / block)\n        require(_revealTimeoutBlocks <= 43200, \"Maximum reveal timeout is 43200 blocks\"); // ~7 days (assuming 14 sec / block)\n        require(_joinTimeoutBlocks >= 10, \"Minimum join timeout is 10 blocks\"); // ~2m 20 sec (assuming 14 sec / block)\n        require(_joinTimeoutBlocks <= 43200, \"Maximum join timeout is 43200 blocks\"); // ~7 days (assuming 14 sec / block)\n        require(msg.value >= 0.0001 ether, \"Minimum prize is 0.00001 ETH\");\n        require(msg.value <= 1 ether, \"Maximum prize is 1 ETH\");\n        require(_bombCost >= msg.value / 100, \"Bomb cost must be >= 1/100 of prize\");\n        require(_bombCost <= msg.value / 26, \"Bomb cost must be <= 1/26 of prize\");\n        // Create new ref\n        Game storage game = games[++lastGameIndex];\n        // Populate only necessary (on creation) fields\n        game.creator = msg.sender;\n        game.creationHash = _creationHash;\n        game.bombCost = _bombCost;\n        game.prize = msg.value;\n        game.revealTimeoutBlocks = _revealTimeoutBlocks;\n        game.joinTimeoutBlockNumber = block.number + _joinTimeoutBlocks;\n        emit GameCreated(lastGameIndex, msg.sender, _creationHash, msg.value, _bombCost, _revealTimeoutBlocks, _joinTimeoutBlocks);\n    }\n    \n    function setBombs(uint32 _gameIndex, uint128 _bombsBoard) public payable {\n        Game storage game = games[_gameIndex];\n        require(game.creator != address(0), 'Game not found.');\n        require(game.bomber == address(0), \"Bomber already defined.\");\n        uint bombsCost = getBombsCost(_bombsBoard, game.bombCost);\n        require(msg.value >= bombsCost, \"Not enough wei sent.\");\n        // bombsCost / bombCost = number of bombs placed (this way we don't need to run the loops again)\n        require(bombsCost / game.bombCost >= 25, \"You need to place at least 25 bombs.\");\n        game.bomber = msg.sender;\n        game.bombsBoard = _bombsBoard;\n        game.revealTimeoutBlockNumber = block.number + game.revealTimeoutBlocks;\n        game.paidBombsCost = msg.value;\n        emit BombsPlaced(_gameIndex, msg.sender, _bombsBoard, msg.value);\n    }\n\n    function getBoardFieldAtPosition(uint128 _bombsBoard, uint128 _position) private view returns(bool) {\n        // Check byte at given index using bitwise AND operator\n        return (_bombsBoard & (2 ** _position)) != 0;\n    }\n\n    function getBoardFieldAtXY(uint128 _bombsBoard, uint8 _x, uint8 _y) private view returns(bool) {\n        return getBoardFieldAtPosition(_bombsBoard, _y * 10 + _x);\n    }\n    \n    function getBombsCost(uint128 _bombsBoard, uint singleBombCost) private view returns(uint) {\n        uint bombsCost = 0;\n        for (uint8 i = 0; i < 100; ++i) {\n            if (getBoardFieldAtPosition(_bombsBoard, i)) bombsCost += singleBombCost;\n        }\n        \n        return bombsCost;\n    }\n\n    function claimJoinTimeoutReturn(uint32 _gameIndex) public {\n        // Store in memory, because we want to use it's values AFTER deleting from storage\n        Game memory game = games[_gameIndex];\n        require(game.creator != address(0), 'Game not found.');\n        require(block.number >= game.joinTimeoutBlockNumber, \"Timeout not reached yet.\");\n        require(game.bomber == address(0), \"The game already started.\");\n        delete games[_gameIndex];\n        emit JoinTimeout(_gameIndex);\n        emit GameFinished(_gameIndex, game.prize, 0);\n        \n        balances[game.creator] += game.prize;\n        emit BalanceUpdated(game.creator, balances[game.creator]);\n    }\n    \n    function finishGame(uint32 _gameIndex, Ship[5] memory _ships, bytes32 _seed) public {\n        // Store in memory, because we want to use it's values AFTER deleting from storage\n        Game memory game = games[_gameIndex];\n        require(game.creator != address(0), 'Game not found.');\n        require(getShipsHash(_ships, _seed) == game.creationHash, \"Invalid hash provided.\");\n        uint8 sunkenShipsCount = validateShipsAndCountSunken(_ships, game.bombsBoard);\n\n        delete games[_gameIndex];\n        \n        uint bomberTransferAmount = game.prize * sunkenShipsCount / 5;\n        uint creatorTransferAmount = game.prize + game.paidBombsCost - bomberTransferAmount;\n\n        emit ShipsRevealed(_gameIndex, _ships, sunkenShipsCount);\n        emit GameFinished(_gameIndex, creatorTransferAmount, bomberTransferAmount);\n\n        balances[game.creator] += creatorTransferAmount;\n        balances[game.bomber] += bomberTransferAmount;\n        emit BalanceUpdated(game.creator, balances[game.creator]);\n        emit BalanceUpdated(game.bomber, balances[game.bomber]);\n    }\n    \n    function claimBomberWinByTimeout(uint32 _gameIndex) public {\n        // Store in memory, because we want to use it's values AFTER deleting from storage\n        Game memory game = games[_gameIndex];\n        require(game.creator != address(0), 'Game not found.');\n        require(game.bomber != address(0), \"Bomber is not defined.\");\n        require(block.number >= game.revealTimeoutBlockNumber, \"Timeout not reached yet.\");\n        delete games[_gameIndex];\n        emit RevealTimeout(_gameIndex);\n        emit GameFinished(_gameIndex, game.paidBombsCost, game.prize);\n\n        balances[game.creator] += game.paidBombsCost;\n        balances[game.bomber] += game.prize;\n        emit BalanceUpdated(game.creator, balances[game.creator]);\n        emit BalanceUpdated(game.bomber, balances[game.bomber]);\n    }\n\n    function claimBalance(address _address) public {\n        uint balanceValue = balances[_address];\n        balances[_address] = 0;\n        (bool success, ) = _address.call.value(balanceValue)(\"\");\n        require(success, \"Balance claim failed.\");\n        emit BalanceUpdated(_address, balances[_address]);\n        emit BalanceClaimed(_address, balanceValue);\n    }\n\n    function getBalance(address _address) public view returns(uint)  {\n        return balances[_address];\n    }\n    \n    function getShipsHash(Ship[5] memory _ships, bytes32 _seed) private pure returns(bytes32) {\n        bytes memory bytesToHash = new bytes(15 + 32);\n        for (uint8 i = 0; i < 5; ++i) {\n            bytesToHash[i*3] = bytes1(_ships[i].beginX);\n            bytesToHash[i*3+1] = bytes1(_ships[i].beginY);\n            bytesToHash[i*3+2] = bytes1(_ships[i].vertical ? 1 : 0);\n        }\n        for (uint8 i = 0; i < _seed.length; ++i) {\n            bytesToHash[15+i] = _seed[i];\n        }\n        return sha256(bytesToHash);\n    }\n\n    function validateShipsAndCountSunken(Ship[5] memory _ships, uint128 _bombsBoard) private view returns(uint8) {\n        uint128 shipsBoard = 0;\n        uint8 sunkenShips = 0;\n        for (uint8 i = 0; i < 5; ++i) {\n            Ship memory ship = _ships[i];\n            uint8 hitFields = 0;\n            if (ship.vertical == true) {\n                // Vertical ship validation\n                require(ship.beginY <= 5, \"Invalid ship placement.\");\n                require(ship.beginX <= 9, \"Invalid ship placement.\");\n                uint8 endY = ship.beginY + 4;\n                for (uint8 shipPartY = ship.beginY; shipPartY <= endY; ++shipPartY) {\n                    uint128 shipPartPosition = shipPartY * 10 + ship.beginX;\n                    // Overlay check (using current shipsBoard)\n                    require(getBoardFieldAtPosition(shipsBoard, shipPartPosition) == false, 'Placed ships cannot overlay!');\n                    // Setting field on shipsBoard\n                    shipsBoard += 2 ** shipPartPosition;\n                    // Hit check\n                    if (getBoardFieldAtPosition(_bombsBoard, shipPartPosition) == true) ++hitFields;\n                }\n            }\n            else {\n                // Horizontal ship validation\n                require(ship.beginX <= 5, \"Invalid ship placement.\");\n                require(ship.beginY <= 9, \"Invalid ship placement.\");\n                uint8 endX = ship.beginX + 4;\n                for (uint8 shipPartX = ship.beginX; shipPartX <= endX; ++shipPartX) {\n                    uint128 shipPartPosition = ship.beginY * 10 + shipPartX;\n                    // Overlay check (using current shipsBoard)\n                    require(getBoardFieldAtPosition(shipsBoard, shipPartPosition) == false, 'Placed ships cannot overlay!');\n                    // Setting field on shipsBoard\n                    shipsBoard += 2 ** shipPartPosition;\n                    // Hit check\n                    if (getBoardFieldAtPosition(_bombsBoard, shipPartPosition) == true) ++hitFields;\n                }\n            }\n\n            if (hitFields == 5) ++sunkenShips;\n        }\n\n        return sunkenShips;\n    }\n}",
  "sourcePath": "/var/www/html/ethships/game/contracts/GameOfShips.sol",
  "compiler": {
    "name": "solc",
    "version": "0.5.12+commit.7709ece9.Emscripten.clang"
  },
  "schemaVersion": "3.0.19",
  "updatedAt": "2020-03-26T15:52:17.084Z",
  "networkType": "ethereum",
  "devdoc": {
    "methods": {}
  },
  "userdoc": {
    "methods": {}
  }
}